:100000000C9446000C9465000C9465000C946500FB
:100010000C9465000C9465000C9465000C946500CC
:100020000C9465000C9465000C9465000C946500BC
:100030000C9465000C9465000C9465000C946500AC
:100040000C94A2000C9465000C9465000C9465005F
:100050000C9465000C9465000C9465000C9465008C
:100060000C9465000C9465000C9465000C9465007C
:100070000C9465000C9465000C9465000C9465006C
:100080000C9465000C9465000C94650011241FBE4F
:10009000CFEFD0E1DEBFCDBF11E0A0E0B1E0E0EAFC
:1000A000F3E000E00BBF02C007900D92AC30B10747
:1000B000D9F721E0ACE0B1E001C01D92A631B20752
:1000C000E1F70E94A9010C94CE010C9400008091EC
:1000D0000D01803871F18F3741F18F33C9F08F5F97
:1000E000909110019C3338F090910F019F5F909395
:1000F0000F011092100190910F019C3371F09091BB
:100100000E01983111F410920E0180930D010895A3
:1001100081E080930C0180E4E3CF90910E019F5F1A
:1001200090930E0110920F01EACF10920C0180E81B
:10013000D7CF809110018F5F8093100110920D0135
:1001400081E0CECF1F920F920FB60F9211240BB603
:100150000F922F933F934F935F936F937F938F9360
:100160009F93AF93BF93EF93FF930E946700FF911C
:10017000EF91BF91AF919F918F917F916F915F911F
:100180004F913F912F910F900BBE0F900FBE0F908C
:100190001F90189580B7886080BF12BE81E083BF32
:1001A00000B602FCFDCF87B7816087BF78940895C1
:1001B000EAE8F0E080818160808308958FEF8ABB58
:1001C00087B3806F87BB0000000088B3806688BB60
:1001D00088B38F7688BB089582309105B9F03CF4DE
:1001E000009791F0019761F480E188BB0895833016
:1001F000910539F0049719F480E488BB08950895B7
:10020000089580E388BB089518BA089580E288BBFA
:100210000895E0910F018DECE89F912D11249695A2
:10022000969596952AE0929FE0191124F0E0E0500F
:10023000FF4F908190931101E0910F01E89FE12D14
:100240001124E695E695E695E89F912D1124969563
:10025000969596952AE0929FE0191124F0E0E050DF
:10026000FF4F908190931201E0910E01E89F912D34
:1002700011249695969596952AE0929FE01911245F
:10028000F0E0E050FF4F908190931301E0910E0158
:10029000E89FE12D1124E695E695E695E89F812DEE
:1002A00011248695869586959AE0899FE0191124F8
:1002B000F0E0E050FF4F8081809314018CEF809339
:1002C000150118BA809111018BBB8FE99FE001974E
:1002D000F1F700C0000080E188BB809112018BBB68
:1002E0008FE99FE00197F1F700C0000080E288BB32
:1002F00080910C01811104C08FEF8BBB80910C01A8
:10030000813011F48CEF8BBB8FE99FE00197F1F7FF
:1003100000C0000080E388BB809113018BBB8FE994
:100320009FE00197F1F700C0000080E488BB809156
:1003300014018BBB8FE99FE00197F1F700C000002B
:10034000089589E685BD80E883BD80E187BFBF9AB7
:1003500008958FEF8ABB87B3806F87BB00000000D2
:1003600088B3806688BB88B38F7688BB8FE39FE1B4
:100370000197F1F700C000008FE99FE00197F1F7C6
:1003800000C0000089E685BD80E883BD80E187BFAD
:10039000BF9A0E94CA000E940901FDCFF894FFCFC6
:0C03A000C0F9A4B0999282F8809000008F
:00000001FF
