S01000005254435F746573742E737265630C
S11300000C9446000C9465000C9465000C946500F7
S11300100C9465000C9465000C9465000C946500C8
S11300200C9465000C9465000C9465000C946500B8
S11300300C9465000C9465000C9465000C946500A8
S11300400C94B5000C9465000C9465000C94650048
S11300500C9465000C9465000C9465000C94650088
S11300600C9465000C9465000C9465000C94650078
S11300700C9465000C9465000C9465000C94650068
S11300800C9465000C9465000C94650011241FBE4B
S1130090CFEFD0E1DEBFCDBF11E0A0E0B1E0E6E4F8
S11300A0FCE000E00BBF02C007900D92AC30B1073A
S11300B0D9F721E0ACE0B1E001C01D92A237B2074C
S11300C0E1F70E94ED040C9421060C940000E1E693
S11300D0F0E0808188608083E2E6F0E08081877FC1
S11300E0808387B3876087BBC19A80E58DB981E03F
S11300F08EB9089580910D01803871F18F3741F1E7
S11301008F33C9F08F5F909110019C3338F0909138
S11301100F019F5F90930F011092100190910F01B6
S11301209C3371F090910E01983111F410920E01EC
S113013080930D01089581E080930C0180E4E3CF66
S113014090910E019F5F90930E0110920F01EACFE0
S113015010920C0180E8D7CF809110018F5F8093BB
S1130160100110920D0181E0CECF1F920F920FB6B5
S11301700F9211240BB60F922F933F934F935F93DB
S11301806F937F938F939F93AF93BF93EF93FF935B
S11301900E947A00FF91EF91BF91AF919F918F914F
S11301A07F916F915F914F913F912F910F900BBE73
S11301B00F900FBE0F901F90189580B7886080BF76
S11301C012BE81E083BF00B602FCFDCF87B7816019
S11301D087BF78940895EAE8F0E0808181608083A5
S11301E00895E1E6F0E080818F778083E2E6F0E035
S11301F080818F77808387E487B986B18F6886B9D9
S113020008958FEF8ABB87B3806F87BB000000001F
S113021088B3806688BB88B38F7688BB08958230A4
S11302209105B9F03CF4009791F0019761F480E1F5
S113023088BB08958330910539F0049719F480E45C
S113024088BB08950895089580E388BB089518BA7B
S1130250089580E288BB0895E0910F018DECE89F3A
S1130260912D11249695969596952AE0929FE019E2
S11302701124F0E0E050FF4F908190933D01E09114
S11302800F01E89FE12D1124E695E695E695E89F98
S1130290912D11249695969596952AE0929FE019B2
S11302A01124F0E0E050FF4F908190933E01E091E3
S11302B00E01E89F912D11249695969596952AE026
S11302C0929FE0191124F0E0E050FF4F9081909349
S11302D03F01E0910E01E89FE12D1124E695E6959A
S11302E0E695E89F812D11248695869586959AE05A
S11302F0899FE0191124F0E0E050FF4F8081809342
S113030040018CEF8093410118BA80913D018BBB71
S11303108FE99FE00197F1F700C0000080E188BBFE
S113032080913E018BBB8FE99FE00197F1F700C0FC
S1130330000080E288BB80910C01811104C08FEF22
S11303408BBB80910C01813011F48CEF8BBB8FE956
S11303509FE00197F1F700C0000080E388BB809123
S11303603F018BBB8FE99FE00197F1F700C00000CC
S113037080E488BB809140018BBB8FE99FE00197AB
S1130380F1F700C00000089589E685BD80E883BDCB
S113039080E187BFBF9A089591E0811101C090E088
S11303A09FB9779BFECF6FB9779BFECF8091620098
S11303B088608093620080916200877F80936200EE
S11303C00895CF93C09111018C0F911DFC016081A0
S11303D081E00E94CC0181E08C0F80931101803177
S11303E0A1F0803211F0CF910895E5EDEA95F1F78F
S11303F0000060E880E00E94CC01F5EDFA95F1F789
S1130400000010921101CF910895F5EDFA95F1F7DE
S1130410000060EC80E00E94CC0185ED8A95F1F744
S1130420000080911101DDCFEF92FF920F931F9393
S1130430CF93DF931F92CDB7DEB7182F660F660FE9
S1130440660F605C80E099830E94CC0185ED8A95FB
S1130450F1F70000E12E9981F92E8701085F1F4F03
S1130460F70161917F0181E00E94CC01F5EDFA95DD
S1130470F1F70000E016F10699F70F90DF91CF91A4
S11304801F910F91FF90EF90089590E4899F600D64
S11304901124605C80E00C94CC01CF938823B9F1E3
S11304A0C82F843698F48A30D8F48DECC89F812DF7
S11304B011248695869586956C2F2AE0829F601973
S11304C01124605D81E0CF910C94CC0169E2869F98
S11304D0612D112462956F70605D81E00E94CC01F2
S11304E089E2C89F812D112482958F709C2F24E668
S11304F0829F901911246DEC969F612D11246695AD
S113050066956695605D81E00E94CC01CECF60E384
S113051081E0CF910C94CC01CF9387FD03C0CF91A0
S11305200C944D02C82F6DE281E00E94CC0185ED50
S11305308A95F1F700008C2F8195CF910C944D0290
S11305406EE080E00C94CC016CE080E00C94CC0173
S11305506EE180E00C94CC0168E180E00C94CC0165
S1130560E2E6F0E08081886080838081877F8083F9
S1130570089561E080E00E94CC018FE19CE1019745
S1130580F1F700C00000089562E080E00E94CC0111
S11305908FE697E10197F1F700C00000089560EC41
S11305A080E00E94CC0185ED8A95F1F70000089562
S11305B060E880E00E94CC0185ED8A95F1F70000A7
S11305C00895CF93C0E160E281E00E94CC0185ED03
S11305D08A95F1F70000C150B1F7CF910895682FC3
S11305E081E00C94CC010F931F93CF938C0140E0D6
S11305F050E0C0E0F801E40FF51F608181E00E9443
S1130600CC0185ED8A95F1F70000CF5F4C2F50E0C7
S1130610F80101900020E9F79F01201B310B2250C3
S113062031092417350730F7CF911F910F910895A1
S11306308FEF99EF0197F1F700C0000088E08093F5
S1130640610060E380E00E94CC018FE59DE60197A4
S1130650F1F700C0000060E380E00E94CC018FE568
S11306609DE60197F1F700C0000060E380E00E947E
S1130670CC018FE59DE60197F1F700C0000068E327
S113068080E00E94CC018FE19EE40197F1F700C065
S1130690000068E080E00E94CC018FE19EE40197B5
S11306A0F1F700C0000061E080E00E94CC018FE11E
S11306B09EE40197F1F700C0000066E080E00E942C
S11306C0CC018FE19EE40197F1F700C000006CE0DB
S11306D080E00E94CC018FE19EE40197F1F700C015
S11306E0000008958F929F92AF92BF92CF92DF92B3
S11306F0EF92FF920F931F93CF93DF93CDB7DEB7A3
S113070069970FB6F894DEBF0FBECDBFF42E122F3B
S1130710002359F04B015C018824B7FC839499248D
S1130720AA24BB24082D97FD8FC0112309F484C08B
S11307309E012F5F3F4F6901590188248A94810EDD
S1130740912C3FEF831A930A8C0C9D1C2AE030E015
S113075040E050E00E949705E62F2A8B3B8B4C8BA0
S11307605D8B6A897B898C899D8920E32E0FF50135
S113077021935F01E815F90549F7BB24B394B10E41
S1130780F601E10FF11D2EE220832AE030E040E083
S113079050E00E949705E62F2A8B3B8B4C8B5D8B98
S11307A06E8B7F8B888F998F6A897B898C899D89D1
S11307B011E01B0DD601AB0DB11DE05DEC93B12E24
S11307C0611571058105910501F7FF2061F0E110C4
S11307D039C080E21F1538F4F601E10FF11D808362
S11307E01F5F1F11F9CF002331F0F601E10FF11D56
S11307F08DE280831F5F1150F601E10FF11D6081CE
S113080081E00E94CC0135ED3A95F1F70000111119
S1130810F2CF69960FB6F894DEBF0FBECDBFDF915D
S1130820CF911F910F91FF90EF90DF90CF90BF90E9
S1130830AF909F908F900895B12C9E012F5F3F4FF2
S11308406901A3CF80E3C6CF90958095709561959B
S11308507F4F8F4F9F4F69CF5F926F927F928F929E
S11308609F92AF92BF92CF92DF92EF92FF920F933B
S11308701F93CF93DF93CDB7DEB761970FB6F8948C
S1130880DEBF0FBECDBF662E142F592E551C552426
S1130890551C752CA52CB12C222733272A193B096A
S11308A0822793279C012A0D3B1D442309F490C001
S11308B0CE0101967C016C0188248A94840E912CCB
S11308C09FEF891A990A8E0C9F1C6AE070E0C90197
S11308D00E948305462F242F372F805DF6018193D4
S11308E06F01E815F90589F7DD24D394D10EF701DA
S11308F0E10FF11D8EE280836AE070E0C9010E947D
S11309008305462F242F372F11E01D0DF701ED0D20
S1130910F11D805D8083D12E2115310569F7011108
S113092015C0552039F011E01D0DF701ED0DF11D35
S11309308DE28083662041F1812F90E0262D30E006
S1130940821793070CF5712C40E20CC06620A1F0CD
S1130950812F90E0262D30E02A193B098217930756
S11309605CF440E31F5FF701E80FF91F4083812F18
S113097090E082179307B4F3772031F0F701E10F89
S1130980F11D8DE280831F5F1150F701E10FF11D0E
S1130990608181E00E94CC0195ED9A95F1F7000009
S11309A01111F2CF61960FB6F894DEBF0FBECDBF22
S11309B0DF91CF911F910F91FF90EF90DF90CF9037
S11309C0BF90AF909F908F907F906F905F900895AD
S11309D0D12CCE0101967C018FCF8FEF8ABB87B3D8
S11309E0806F87BB0000000088B3806688BB88B333
S11309F08F7688BB8FE39FE10197F1F700C0000079
S1130A008FE99FE00197F1F700C0000089E685BDFA
S1130A1080E883BD80E187BFBF9A0E94DD000E9409
S1130A2067000E9418030E94B902809161008F77C9
S1130A3080936100809162008F778093620087E4E5
S1130A4087B986B18F6886B9C4E60E942C01369AAC
S1130A50349BFECF349A84B195B190931301809363
S1130A6012016DEC70E00E9483059B0160933901D3
S1130A7070933A0180933B0190933C014AE069E210
S1130A8071E0C9010E94EC0580913B0190913C0109
S1130A906DEC70E09C01C29FC001C39F900D1124B6
S1130AA00E9483059B016093250170932601809326
S1130AB02701909328014AE064E171E0C9010E9492
S1130AC0EC0589E291E00E94F3028EE20E94EF02BB
S1130AD084E191E00E94F302109224013FEF80E749
S1130AE092E0315080409040E1F700C000008091D6
S1130AF024018F5F809324018B3080F30E94B9021C
S1130B000E94C402A2CF97FB072E16F4009407D0CC
S1130B1077FD09D00E94B60507FC05D03EF49095F8
S1130B2081959F4F0895709561957F4F0895052E87
S1130B3097FB1EF400940E94AE0557FD07D00E9457
S1130B40CA0507FC03D04EF40C94AE0550954095AD
S1130B50309521953F4F4F4F5F4F08959095809565
S1130B60709561957F4F8F4F9F4F0895AA1BBB1BB4
S1130B7051E107C0AA1FBB1FA617B70710F0A61B99
S1130B80B70B881F991F5A95A9F780959095BC01BA
S1130B90CD010895A1E21A2EAA1BBB1BFD010DC0B5
S1130BA0AA1FBB1FEE1FFF1FA217B307E407F50719
S1130BB020F0A21BB30BE40BF50B661F771F881FF5
S1130BC0991F1A9469F760957095809590959B018B
S1130BD0AC01BD01CF010895BB274A3031F49923FC
S1130BE022F4BDE2909581959F4F0C94F805BB27A4
S1130BF0FB015527AA27880F991FAA1FA41710F0D5
S1130C00A41B83955051B9F7A05DAA3308F0A95DE0
S1130C10A193009779F7B111B1931192CB010C9480
S1130C201106DC01FC01672F71917723E1F73297FC
S1130C3004C07C916D9370836291AE17BF07C8F3B3
S1090C400895F894FFCFB3
S10F0C46C0F9A4B0999282F880900000DC
S9030000FC
